:020000040800F2
:1000000000000220FD4100089541000897410008CA
:10001000994100089B4100089D4100080000000034
:100020000000000000000000000000009F410008E8
:10003000A141000800000000A3410008A5410008FC
:100040004D4200084D4200084D4200084D42000854
:100050004D4200084D4200084D4200084D42000844
:100060004D4200084D4200084D4200084D42000834
:100070004D4200084D4200084D4200084D42000824
:100080004D4200084D4200084D42000800000000AB
:100090000000000000000000000000004D420008C9
:1000A0004D4200084D4200084D4200084D420008F4
:1000B0004D4200084D4200084D4200084D420008E4
:1000C0004D4200084D4200084D4200084D420008D4
:1000D0004D4200084D4200084D420008000000005B
:1000E0004D4200084D4200084D420008000000004B
:1000F0000000000000000000000000004D42000869
:10010000000000004D4200084D4200084D4200082A
:1001100000000000000000000000000000000000DF
:100120004D4200084D4200084D4200084D42000873
:100130004D42000800000000000000000000000028
:100140000000000000000000000000004D42000818
:100150004D4200084D4200084D4200084D42000843
:100160004D4200084D420008000000000000000061
:10017000000000000000000000000000000000007F
:10018000000000004D4200080000000000000000D8
:080190004D4200084D42000839
:1001A00010B5054C237833B9044B13B10448AFF3B1
:1001B00000800123237010BD6402002000000000B5
:1001C000A84D000808B5034B1BB103490348AFF322
:1001D000008008BD0000000068020020A84D000853
:1001E00081F0004102E000BF83F0004330B54FEAE8
:1001F00041044FEA430594EA050F08BF90EA020F55
:100200001FBF54EA000C55EA020C7FEA645C7FEAE7
:10021000655C00F0E2804FEA5454D4EB5555B8BF0A
:100220006D420CDD2C4480EA020281EA030382EA7B
:10023000000083EA010180EA020281EA0303362D0D
:1002400088BF30BD11F0004F4FEA01314FF4801CE0
:100250004CEA113102D0404261EB410113F0004FF2
:100260004FEA03334CEA133302D0524263EB4303A9
:1002700094EA050F00F0A780A4F10104D5F1200E47
:100280000DDB02FA0EFC22FA05F2801841F10001A2
:1002900003FA0EF2801843FA05F359410EE0A5F176
:1002A00020050EF1200E012A03FA0EFC28BF4CF0A7
:1002B000020C43FA05F3C01851EBE37101F000455D
:1002C00007D54FF0000EDCF1000C7EEB00006EEB6A
:1002D0000101B1F5801F1BD3B1F5001F0CD34908F4
:1002E0005FEA30004FEA3C0C04F101044FEA44524B
:1002F00012F5800F80F09A80BCF1004F08BF5FEAD2
:10030000500C50F1000041EB045141EA050130BDB1
:100310005FEA4C0C404141EB010111F4801FA4F154
:100320000104E9D191F0000F04BF01460020B1FAA9
:1003300081F308BF2033A3F10B03B3F120020CDAE1
:100340000C3208DD02F1140CC2F10C0201FA0CF0BF
:1003500021FA02F10CE002F11402D8BFC2F1200C24
:1003600001FA02F120FA0CFCDCBF41EA0C019040DA
:10037000E41AA2BF01EB0451294330BD6FEA040423
:100380001F3C1CDA0C340EDC04F11404C4F120020E
:1003900020FA04F001FA02F340EA030021FA04F320
:1003A00045EA030130BDC4F10C04C4F1200220FA77
:1003B00002F001FA04F340EA0300294630BD21FAB5
:1003C00004F0294630BD94F0000F83F4801306BF7B
:1003D00081F480110134013D4EE77FEA645C18BF6F
:1003E0007FEA655C29D094EA050F08BF90EA020F06
:1003F00005D054EA000C04BF1946104630BD91EAFE
:10040000030F1EBF0021002030BD5FEA545C05D100
:100410004000494128BF41F0004130BD14F580043F
:100420003CBF01F5801130BD01F0004545F0FE41B3
:1004300041F470014FF0000030BD7FEA645C1ABFE8
:10044000194610467FEA655C1CBF0B46024650EA1F
:10045000013406BF52EA033591EA030F41F400214B
:1004600030BD00BF90F0000F04BF0021704730B5D1
:100470004FF4806404F132044FF000054FF00001A6
:1004800050E700BF90F0000F04BF0021704730B567
:100490004FF4806404F1320410F0004548BF40423C
:1004A0004FF000013EE700BF42004FEAE2014FEA91
:1004B00031014FEA02701FBF12F07F4393F07F4F6C
:1004C00081F06051704732F07F4208BF704793F06F
:1004D0007F4F04BF41F40021704730B54FF4607482
:1004E00001F0004521F000411CE700BF50EA010285
:1004F00008BF704730B54FF000050AE050EA01022E
:1005000008BF704730B511F0004502D5404261EB9D
:1005100041014FF4806404F132045FEA915C3FF4DE
:10052000D8AE4FF003025FEADC0C18BF03325FEA7B
:10053000DC0C18BF033202EBDC02C2F1200300FA2C
:1005400003FC20FA02F001FA03FE40EA0E0021FA51
:1005500002F11444BDE600BF70B54FF0FF0C4CF43F
:10056000E06C1CEA11541DBF1CEA135594EA0C0FF1
:1005700095EA0C0F00F0DEF82C4481EA030621EA2C
:100580004C5123EA4C5350EA013518BF52EA033567
:1005900041F4801143F4801338D0A0FB02CE4FF019
:1005A0000005E1FB02E506F00042E0FB03E54FF049
:1005B0000006E1FB03569CF0000F18BF4EF0010E41
:1005C000A4F1FF04B6F5007F64F5407404D25FEA3D
:1005D0004E0E6D4146EB060642EAC62141EA5551F0
:1005E0004FEAC52040EA5E504FEACE2EB4F1FD0C32
:1005F00088BFBCF5E06F1ED8BEF1004F08BF5FEAB0
:10060000500E50F1000041EB045170BD06F0004661
:1006100046EA010140EA020081EA0301B4EB5C040E
:10062000C2BFD4EB0C0541EA045170BD41F4801106
:100630004FF0000E013C00F3AB8014F1360FDEBF2B
:10064000002001F0004170BDC4F10004203C35DA07
:100650000C341BDC04F11404C4F1200500FA05F38A
:1006600020FA04F001FA05F240EA020001F000422B
:1006700021F0004110EBD37021FA04F642EB0601A1
:100680005EEA430E08BF20EAD37070BDC4F10C04CB
:10069000C4F1200500FA04F320FA05F001FA04F28F
:1006A00040EA020001F0004110EBD37041F100017B
:1006B0005EEA430E08BF20EAD37070BDC4F1200586
:1006C00000FA05F24EEA020E20FA04F301FA05F2EE
:1006D00043EA020321FA04F001F0004121FA04F296
:1006E00020EA020000EBD3705EEA430E08BF20EA66
:1006F000D37070BD94F0000F0FD101F000464000A0
:1007000041EB010111F4801F08BF013CF7D041EA21
:10071000060195F0000F18BF704703F00046520025
:1007200043EB030313F4801F08BF013DF7D043EAF6
:100730000603704794EA0C0F0CEA135518BF95EAAC
:100740000C0F0CD050EA410618BF52EA4306D1D133
:1007500081EA030101F000414FF0000070BD50EA52
:10076000410606BF1046194652EA430619D094EADC
:100770000C0F02D150EA013613D195EA0C0F05D1C6
:1007800052EA03361CBF104619460AD181EA03011A
:1007900001F0004141F0FE4141F470014FF00000D2
:1007A00070BD41F0FE4141F4780170BD70B54FF06D
:1007B000FF0C4CF4E06C1CEA11541DBF1CEA1355ED
:1007C00094EA0C0F95EA0C0F00F0A7F8A4EB0504CF
:1007D00081EA030E52EA03354FEA013100F08880C6
:1007E0004FEA03334FF0805545EA131343EA12638F
:1007F0004FEA022245EA111545EA10654FEA002644
:100800000EF000419D4208BF964244F1FD0404F5FC
:10081000407402D25B084FEA3202B61A65EB030558
:100820005B084FEA32024FF480104FF4002CB6EB15
:10083000020E75EB030E22BFB61A754640EA0C0095
:100840005B084FEA3202B6EB020E75EB030E22BFD5
:10085000B61A754640EA5C005B084FEA3202B6EB16
:10086000020E75EB030E22BFB61A754640EA9C00D5
:100870005B084FEA3202B6EB020E75EB030E22BFA5
:10088000B61A754640EADC0055EA060E18D04FEA63
:10089000051545EA16754FEA06164FEAC30343EA03
:1008A00052734FEAC2025FEA1C1CC0D111F4801FD0
:1008B0000BD141EA00014FF000004FF0004CB6E7C9
:1008C00011F4801F04BF01430020B4F1FD0C88BF68
:1008D000BCF5E06F3FF6AFAEB5EB030C04BFB6EB73
:1008E000020C5FEA500C50F1000041EB045170BD66
:1008F0000EF0004E4EEA113114EB5C04C2BFD4EB93
:100900000C0541EA045170BD41F480114FF0000E16
:10091000013C90E645EA060E8DE60CEA135594EA92
:100920000C0F08BF95EA0C0F3FF43BAF94EA0C0F95
:100930000AD150EA01347FF434AF95EA0C0F7FF40A
:1009400025AF104619462CE795EA0C0F06D152EA5E
:1009500003353FF4FDAE1046194622E750EA410642
:1009600018BF52EA43067FF4C5AE50EA41047FF453
:100970000DAF52EA43057FF4EBAE12E74FF0FF3CB8
:1009800006E000BF4FF0010C02E000BF4FF0010C89
:100990004DF804CD4FEA410C7FEA6C5C4FEA430C02
:1009A00018BF7FEA6C5C1BD001B050EA410C0CBF51
:1009B00052EA430C91EA030F02BF90EA020F0020B3
:1009C000704710F1000F91EA030F58BF994208BF1A
:1009D00090422CBFD8176FEAE37040F001007047D7
:1009E0004FEA410C7FEA6C5C02D150EA013C07D12E
:1009F0004FEA430C7FEA6C5CD6D152EA033CD3D079
:100A00005DF8040B704700BF8446104662468C4672
:100A10001946634600E000BF01B5FFF7B7FF0028A5
:100A200048BF10F1000F01BD4DF808EDFFF7F4FFCE
:100A30000CBF012000205DF808FB00BF4DF808ED59
:100A4000FFF7EAFF34BF012000205DF808FB00BF7C
:100A50004DF808EDFFF7E0FF94BF012000205DF89E
:100A600008FB00BF4DF808EDFFF7CEFF94BF012053
:100A700000205DF808FB00BF4DF808EDFFF7C4FF4C
:100A800034BF012000205DF808FB00BF4FEA410C95
:100A90007FEA6C5C02D150EA013C0AD14FEA430C78
:100AA0007FEA6C5C02D152EA033C02D14FF00000B5
:100AB00070474FF0010070474FEA410212F50012F3
:100AC00015D211D56FF47873B3EB625212D94FEA95
:100AD000C12343F0004343EA505311F0004F23FA7F
:100AE00002F018BF404270474FF00000704750EAD4
:100AF000013005D111F0004008BF6FF00040704791
:100B00004FF00000704700BF53B94AB9002908BF31
:100B100000281CBF4FF0FF314FF0FF3000F072B9DA
:100B2000ADF1080C6DE904CE00F006F8DDF804E044
:100B3000DDE9022304B070472DE9F047089E044622
:100B40008846002B4BD18A42154667D9B2FA82F209
:100B50004AB1C2F1200701FA02F320FA07F79540E3
:100B600047EA030894404FEA154E230CB8FBFEF702
:100B70001FFA85FC0EFB178843EA084307FB0CF1BC
:100B8000994209D9EB1807F1FF3080F01B81994297
:100B900040F21881023F2B445B1AA4B2B3FBFEF073
:100BA0000EFB103344EA034400FB0CFCA44509D9B6
:100BB0002C1900F1FF3380F00781A44540F2048135
:100BC00002382C4440EA0740A4EB0C0400271EB175
:100BD000D4400023C6E900433946BDE8F0878B4284
:100BE00009D9002E00F0EB800027C6E90001384645
:100BF0003946BDE8F087B3FA83F7002F47D18B421F
:100C000002D3824200F2FA80841A61EB03030120CE
:100C10009846002EE0D0C6E90048DDE702B9FFDEC5
:100C2000B2FA82F2002A40F08F80491B4FEA154E3B
:100C30001FFA85F80127B1FBFEFC230C0EFB1C11EB
:100C400043EA014308FB0CF1994207D9EB180CF178
:100C5000FF3002D2994200F2CD808446591AA3B2E5
:100C6000B1FBFEF00EFB101443EA044408FB00F84D
:100C7000A04507D92C1900F1FF3302D2A04500F29C
:100C8000B6801846A4EB080440EA0C409FE7C7F181
:100C9000200CBB4022FA0CFE4EEA030E01FA07F4C8
:100CA00020FA0CF521FA0CF34FEA1E482543B3FB5A
:100CB000F8F92C0C08FB19331FFA8EFA44EA0343A7
:100CC00009FB0AF49C4202FA07F200FA07F10BD979
:100CD0001EEB030309F1FF3080F087809C4240F255
:100CE0008480A9F1020973441B1BADB2B3FBF8F079
:100CF00008FB103345EA034400FB0AFAA24508D971
:100D00001EEB040400F1FF336BD2A24569D902380F
:100D1000744440EA0940A0FB0289A4EB0A044C4554
:100D2000C2464B4654D351D0002E69D0B1EB0A05D0
:100D300064EB030404FA0CFCFD40FC404CEA05059E
:100D4000C6E90054002747E7C2F1200320FA03F761
:100D5000954001FA02F021FA03F34FEA154E3843A9
:100D6000010CB3FBFEF71FFA85F80EFB173341EABF
:100D7000034107FB08F38B4204FA02F407D9691810
:100D800007F1FF3C2FD28B422DD9023F2944CB1AC9
:100D900081B2B3FBFEF00EFB103341EA034100FBCE
:100DA00008F38B4207D9691800F1FF3C17D28B4238
:100DB00015D902382944C91A40EA07473BE73746A4
:100DC000304609E70746E7E61846FBE64145ABD261
:100DD000B8EB020A69EB0E0201381346A4E760463D
:100DE000E9E7184695E76746D1E781467CE7023890
:100DF0002C4447E7ACF1020C2B442FE7384608E7B8
:100E00003746E9E6704700BF000000000000000020
:100E100001F0FF01102A2BDB10F0070F08D010F8AB
:100E2000013B013A8B422DD010F0070F42B3F6D1AF
:100E3000F0B441EA012141EA014122F007047FF0C8
:100E400000070023F0E80256083C85EA010586EA1F
:100E5000010685FA47F5A3FA87F586FA47F6A5FA5B
:100E600087F68EB9EED1F0BC01F0FF0102F0070267
:100E700032B110F8013B013A83EA010313B1F8D112
:100E80000020704701387047002D06BF35460338F3
:100E9000073815F0010F07D1013015F4807F02BF2C
:100EA000013015F4C03F0130F0BC0138704700BF7D
:100EB000704730B583B0054600238DF8073000F049
:100EC00097FB02AC04F8015D01222021204600F0CE
:100ED000CDFB2D0A8DF8075001222321204600F07A
:100EE000C5FB03B030BD00B583B002AB03F8010D04
:100EF00001222021184600F0B9FB03B05DF804FB85
:100F000000B583B000F074FB01220F210DF1070042
:100F100000F0CEFB9DF8070003B05DF804FB00B5C0
:100F200083B0012224210DF1070000F0C1FB9DF8E0
:100F3000073063F07F038DF80730012224210DF183
:100F4000070000F093FB03B05DF804FB10B582B01E
:100F5000044600238DF807308DF806300122302139
:100F60000DF1070000F0A4FB012222210DF1060083
:100F700000F09EFB9DF80730E4B203F080038DF88B
:100F800007309DF8063003F0DF031C438DF8064060
:100F9000012230210DF1070000F068FB012222211F
:100FA0000DF1060000F062FB02B010BD10B582B07A
:100FB0000446012222210DF1070000F079FB54B113
:100FC000012C0ED19DF8073003F0F70343F008031E
:100FD0008DF8073005E09DF8073063F07F038DF84A
:100FE0000730012222210DF1070000F03FFB02B083
:100FF00010BD10B582B00446012222210DF1070078
:1010000000F056FB44B1012C0CD19DF8073023F0C1
:1010100008038DF8073005E09DF8073003F07F03E3
:101020008DF80730012222210DF1070000F01EFB90
:1010300002B010BD10B582B00446012221210DF18D
:10104000070000F035FB9DF8070000F0C0002043CA
:101050008DF80700012221210DF1070000F006FBA9
:1010600002B010BD10B582B00446012224210DF15A
:10107000070000F01DFB9DF8070000F0EF00204383
:101080008DF80700012224210DF1070000F0EEFA8F
:1010900002B010BD10B586B0044600230493ADF82D
:1010A00014300293ADF80C3006A800F8113D01226F
:1010B000232100F0FDFA0622282104A800F0F8FA06
:1010C0009DF8073013F0400F1FD000222FE053008F
:1010D000591C06A8014411F8080C06A90B4413F882
:1010E000081C01EB002123F8101C0132022AEEDD5E
:1010F0009DF8073003F03003102B1BD0202B1CD0A1
:10110000F3B19FED1B7A00232DE00022EEE75300A0
:1011100006A9194411F8080C01330DF1180C6344A9
:1011200013F8083C03EB002321F8103C0132022A9B
:10113000EDDDDDE79FED0F7AE5E79FED0F7AE2E762
:101140009FED0E7ADFE706AA02EB430232F9102C7C
:1011500007EE902A04EB8302F8EEE77A67EE877ACF
:10116000C2ED007A0133022BEDDD06B010BD00BFE9
:101170000000000000008C4100008C4200000C4187
:10118000704710B5044600F0B7FAE2B220213220D1
:1011900000F0FEFA00222321322000F0F9FA10BDFF
:1011A00008B500F0A9FA0F21322000F0F5FA08BDC9
:1011B00008B52421322000F0EFFA60F07F02D2B2AD
:1011C0002421322000F0E4FA08BD10B504462121A4
:1011D000322000F0E1FA00F00C02224321213220FB
:1011E00000F0D6FA10BD10B504462121322000F0DF
:1011F000D3FA00F0F70222432121322000F0C8FA8E
:1012000010BD30B587B004462321322000F0C4FA67
:1012100005468DF80C002421322000F0BDFA28216B
:10122000322000F0B9FA8DF804002921322000F0B4
:10123000B3FA8DF805002A21322000F0ADFA8DF8BE
:1012400006002B21322000F0A7FA8DF807002C2190
:10125000322000F0A1FA8DF808002D21322000F094
:101260009BFA8DF8090015F0400F22D0002135E0DF
:1012700051004B1C06A8034413F9143C9BB21B02FB
:101280009BB2014411F9140C13FA80F321F8083CC5
:101290000132D2B2022AEBD99DF80C3003F03003B0
:1012A000202B1ED0302B1ED0102B1ED0012100234E
:1012B00028E00022EEE74A0006AB981810F9143C2B
:1012C0009BB21B029BB2013206AD2A4412F9142CC8
:1012D00013FA82F320F8083C0131C9B20229EAD995
:1012E000DAE70421E3E70C21E1E70221DFE706AAC0
:1012F00002EB430232F9082C12FB01F224F813200E
:101300000133DBB2022BF2D907B030BD10B5044671
:101310002121322000F040FA00F0FB02224321217B
:10132000322000F035FA10BD10B5044622213220DB
:1013300000F032FA40EA0402D2B22221322000F058
:1013400027FA10BD10B504463821322000F024FAE7
:1013500040EA0402D2B23821322000F019FA0A22FF
:101360003A21322000F014FA05223B21322000F00D
:101370000FFA05223C21322000F00AFA32223D21E8
:10138000104600F005FA10BD08B500F0D7F980202E
:10139000FFF7CAFF0420FFF7B9FF1020FFF7D2FFC5
:1013A00008BD000000B589B000210191114B5A6CB5
:1013B00042F480525A645A6C02F480520192019AAB
:1013C00002911A6B42F001021A631B6B03F00103D6
:1013D0000293029BE02303930223049305930123CA
:1013E00006930523079303A9034800F051FB09B0B6
:1013F0005DF804FB003802400000024030B589B0BF
:10140000002501951D4C236C43F400132364236CC9
:1014100003F400130193019B0295236B43F0020335
:101420002363236B03F002030293029B4FF41073B8
:101430000393122304930595022306930423079331
:1014400003A90F4800F024FB236A43F4001323622E
:10145000236A23F4001323622A460F211F2000F081
:1014600081FA1F2000F0C4FA2A460F21202000F044
:1014700079FA202000F0BCFA09B030BD00380240F3
:101480000004024010B5104802F0DAF900B110BDB6
:101490000D4C0E4B23601023E3610023A3606361B6
:1014A0002361A3620722E262E36023624FF40072C9
:1014B000A26163624FF4827363602046FFF772FF9C
:1014C000204601F0B1FEE2E780020020003001403A
:1014D00008B5034801F07AFFFFF7D4FF08BD00BF4D
:1014E0008002002000B587B08DF80F0006AA002307
:1014F00002F8013D084B1B68009301230DF10F0119
:10150000064802F077F820B99DF8170007B05DF89B
:1015100004FBFFF7DDFFF7E76800002080020020F2
:1015200010B50E4801F058FA00B110BD0C4C0D4B2F
:10153000A365432363660C4BE365002323664FF4E6
:101540008042A266E36623676367A3675834204638
:10155000FFF754FF204600F0C9FEE6E7D80200205E
:101560008002002000540040A086010008B5034816
:1015700000F0B8FFFFF7D4FF08BD00BFD80200207D
:1015800010B586B006AC04F8012D084B5B680293D9
:101590000123019300940A460146054800F0D2FF5A
:1015A00008B906B010BDFFF7E1FFFAE768000020B8
:1015B000D802002000B587B006AA002302F8013D3A
:1015C000094B5B6802930123019300920A4601468E
:1015D000064801F081F820B99DF8170007B05DF8C2
:1015E00004FBFFF7C3FFF7E768000020D8020020E4
:1015F0002DE9F04188B0002501951A4C236B43F08A
:1016000010032363236B03F010030193019B4FF03E
:101610000808CDF80C800127049705950697124E0F
:1016200003A9304600F034FA3A464146304600F00D
:1016300023FC0295236B43F010032363236B03F019
:1016400010030293029B0323039304950223069342
:10165000059503A9304600F01BFAFFF713FF08B009
:10166000BDE8F081003802400010024070B5054628
:101670000E461446012A01D941F0400600220821F5
:101680000A4800F0F9FB3046FFF72CFF05E015F89B
:10169000010BFFF727FF013CA4B2002CF7D1012278
:1016A0000821024800F0E8FB70BD00BF00100240B6
:1016B00070B505461446012A0AD941F0C006002239
:1016C00008210C4800F0D8FB3046FFF70BFF09E07B
:1016D00041F08006F3E70020FFF704FF05F8010B57
:1016E000013CA4B2002CF6D101220821014800F0EF
:1016F000C3FB70BD0010024000B587B0002300930B
:101700000C4A116B41F010011163126B02F01002D0
:101710000092009A042201920293039302230493FD
:101720000DEB0201044800F0B3F9FFF7F9FE07B032
:101730005DF804FB003802400010024010B586B08E
:10174000002400940F4B1A6B42F010021A631B6BBB
:1017500003F010030093009B302301930A4B029384
:1017600002230493039401A9084800F091F922464A
:101770000F210A2000F0F6F80A2000F039F906B02F
:1017800010BD00BF003802400000111000100240E0
:1017900008B5FFF7F5FE08BD08B5FFF70BFF08BD5C
:1017A00010B50A4B9B68984733280CD1084C074B5F
:1017B00023601B6840F64700984723689B6A902087
:1017C0009847002010BD0120FCE700BF3400002036
:1017D0002C0300200A4B1B681B6B7BB110B5044621
:1017E0009847074B1A68074B9A4200D010BDB4F9CE
:1017F0000030628822805B426380F7E7704700BF59
:101800002C0300203400002010B50E4B9B68984735
:10181000D42806D00B4B9B689847D52801D00120CF
:101820000FE0094C074B23601B6841F23F009847CB
:1018300023689B6A002098472368DB6A102098473A
:10184000002010BD000000203003002008B5034B2D
:101850001B681B6B03B1984708BD00BF3003002015
:1018600010B504460E4B18784FF47A73B3FBF0F3BF
:101870000C4A1068B0FBF3F000F0D0F868B90F2CF8
:1018800001D901200AE0002221464FF0FF3000F08C
:1018900069F8034B5C60002000E0012010BD00BF30
:1018A000840000208C00002008B50B4B1A6842F41D
:1018B00000721A601A6842F480621A601A6842F470
:1018C00080721A60032000F02FF80020FFF7C8FF95
:1018D00002F016FC002008BD003C0240034A1168DB
:1018E000034B1B780B441360704700BF400300207C
:1018F00084000020014B1868704700BF400300209F
:1019000038B50446FFF7F6FF0546B4F1FF3F02D0B5
:10191000044B1B781C44FFF7EDFF401BA042FAD399
:1019200038BD00BF8400002010B50446C31E042B40
:101930000FD80A4AD36823F4E0631B041B0C24026B
:1019400004F4E064234343F0BF6343F40033D36003
:1019500010BDA221024802F06BFBEAE700ED00E0B7
:10196000E853000870B505460C4616460F2A25D8E0
:101970000F2C28D81B4BDB68C3F30223C3F10702EB
:10198000042A28BF0422191D062921D9033B4FF040
:10199000FF3101FA02F224EA02049C4001FA03F347
:1019A00026EA03063443002D14DB2401E4B205F1DA
:1019B000604505F5614585F8004370BDBA210A48C8
:1019C00002F036FBD4E7BB21074802F031FBD1E738
:1019D0000023DCE705F00F052401E4B2034B5C555E
:1019E000EBE700BF00ED00E0E853000814ED00E075
:1019F00010B5041E08DB04F01F02640901239340A4
:101A0000044A42F8243010BDCE21034802F010FBF6
:101A1000F1E700BF00E100E0E85300080138B0F151
:101A2000807F0AD2064B5860064AF02182F82310C4
:101A30000020986007221A6070470120704700BF9D
:101A400010E000E000ED00E010B50446042800D0EE
:101A500038B9042C0BD0094A136823F0040313602F
:101A600010BD40F2D911064802F0E2FAF1E7034A4C
:101A7000136843F004031360F2E700BF10E000E0D6
:101A8000E8530008704708B5FFF7FCFF08BD0000E9
:101A90002DE9F04782B080460E46A44B984217D0FD
:101AA00003F58063984213D003F5806398420FD00A
:101AB00003F5806398420BD003F58063984207D00A
:101AC00003F54063984203D0C321994802F0B0FA6D
:101AD00033689AB212B11B0C1B041BB1C421944889
:101AE00002F0A6FA7368012B1ED9112B1CD0022B11
:101AF0001AD0122B18D08F4A934215D002F58012BB
:101B0000934211D002F5801293420DD0A2F5F81243
:101B1000934209D002F58012934205D002F580125B
:101B2000934201D0032B04D1B368022B06D80024C2
:101B300045E0C5217E4802F07BFAF5E7C6217C48E6
:101B400002F076FAF3E7EA21794802F071FA90E0C0
:101B5000042300E000238B4003430232764941F81E
:101B60002230764B1A68FB4303EA0201706810F4D6
:101B7000803F01D047EA0201704A1160526803EACF
:101B80000201706810F4003F01D047EA02016B4A7D
:101B90005160926803EA0201706810F4801F01D05E
:101BA00047EA0201654A9160D2681340716811F4F6
:101BB000001F01D047EA0203604AD36001340F2CB2
:101BC00000F2B0800125A54037682F40BD42F5D115
:101BD0007368022B01D0122B2BD13369CBB1092BA7
:101BE00017D0012B15D0022B13D0042B11D0052BAD
:101BF0000FD0062B0DD0072B0BD0082B09D00A2BAA
:101C000007D00C2B05D00F2B03D0D721484802F06A
:101C10000FFAE208083258F8220004F0070399008E
:101C20000F238B4020EA030033698B40034348F8BD
:101C30002230D8F800204FEA440A4FF0030909FA8D
:101C40000AF96FEA090909EA0202736803F003035B
:101C500003FA0AF31343C8F8003073685A1E012AC6
:101C600003D9112B01D0122B18D1F368032B3FF6A7
:101C70006AAFD8F8082009EA0202F36803FA0AF307
:101C80001343C8F80830D8F8042022EA0502736824
:101C9000C3F30015A5401543C8F80450D8F80C301C
:101CA00009EA0309B36803FA0AF343EA0903C8F827
:101CB0000C30736813F0805F80D000230193204BB9
:101CC0005A6C42F480425A645B6C03F48043019383
:101CD000019BA208911C184B53F8210004F0030348
:101CE00099000F238B4020EA0300104B98453FF4E6
:101CF00031AF03F5806398450ED003F580639845B6
:101D00000CD003F5806398450AD003F580639845AD
:101D10003FF41EAF07231EE701231CE702231AE747
:101D2000032318E702B0BDE8F08700BF00000240BF
:101D3000245400080000111000380140003C01400C
:101D400000380240F8B504460D46474B984218D07B
:101D500003F58063984214D003F58063984210D055
:101D600003F5806398420CD003F58063984208D055
:101D700003F54063984204D04FF4A0713B4802F051
:101D800057F9002307E0042000E0002000FA02F2E7
:101D90008A4250D001330F2B65D801229A4002EAC3
:101DA0000506B242F6D120685F000321B940C9435D
:101DB000084020604FEAD30C0CF1080C54F82CE0DA
:101DC00003F0070080000F2707FA00F02EEA00005A
:101DD00044F82C00A0680840A060606820EA020275
:101DE0006260E2681140E1604FEA930C0CF102017D
:101DF0001F4A52F8211003F0030292009740394025
:101E000019488442C1D000F5806084420DD000F5AD
:101E1000806084420BD000F58060844209D000F5D8
:101E200080608442AFD00720B0E70120AEE70220F7
:101E3000ACE70320AAE70E480CF1020250F822108A
:101E400021EA070740F822700A490868F243104067
:101E50000860486810404860886810408860C8681A
:101E60000240CA6096E7F8BD000002402454000812
:101E700000380140003C014070B5064615460C464E
:101E800029B1012D09D875B92404B46170BD40F29F
:101E9000AF11064802F0CCF8F3E74FF4D8710348CD
:101EA00002F0C6F8EFE7B461F0E700BF2454000881
:101EB00003685A6912F4806F0DD06FF480625A6122
:101EC0000423036400230363202280F83D2080F86C
:101ED0003C300120704700207047F8B506460C469C
:101EE00017461D461EE02DB1FFF704FD069BC01AE4
:101EF000A84217D900233363202286F83D2086F8B4
:101F00003E3086F83C3003201AE033685B6924EAEF
:101F100003039BB2B3FA83F35B099F420FD1B5F180
:101F2000FF3FE0D1C4F30743012BEED033689B6938
:101F300024EA03039BB2B3FA83F35B09EDE70020C5
:101F4000F8BDF8B504460D4616461F4632E01A683D
:101F500042F400721A6023686FF480625A610423AD
:101F6000236400232363202284F83D2084F83C303E
:101F700001202DE026B1FFF7BDFCC01BB04219D9EE
:101F800000232363202284F83D2084F83C30032082
:101F90001EE023685B6925EA03039BB2003318BF88
:101FA0000123A3B123685A6912F4806FCFD1B6F12F
:101FB000FF3FDFD1C5F30743012BEAD023689B69BC
:101FC00025EA03039BB2003318BF0123E9E7002091
:101FD000F8BD70B504460D46164623685B6913F0DC
:101FE000800F19D12046FFF763FFB8B9B5F1FF3F65
:101FF000F3D025B1FFF77EFC801BA842EDD9236CFE
:1020000043F02003236400232363202284F83D202F
:1020100084F83C30032000E0002070BD0120FCE784
:102020002DE9F04184B004460E46174698460B9DB4
:102030000268136843F48073136000950A9B0022C2
:102040004FF00111FFF749FF002847D1236806F040
:10205000FE061E612B460A9A26492046FFF771FFAD
:1020600020B1236C042B3ED1012338E000230393DD
:1020700023685A6903929B690393039B2A460A9932
:102080002046FFF7A6FF034648B1236C042B2CD152
:102090002268136843F40073136001231FE0B8F152
:1020A000010F13D023683A0A1A612A460A9920467A
:1020B000FFF78FFF034668B1236C042B17D122680A
:1020C000136843F400731360012308E02268FFB231
:1020D000176104E02268FFB2176100E0032318468D
:1020E00004B0BDE8F0810323F9E70323F7E70323F6
:1020F000F5E700BF020001002DE9F04184B004467D
:102100000E46174698460B9D0268136843F4806399
:1021100013600268136843F48073136000950A9B90
:1021200000224FF00111FFF7D8FE002874D1F6B25B
:10213000236806F0FE021A612B460A9A3F492046A0
:10214000FFF7FFFE20B1236C042B6AD1012364E06A
:102150000023039323685A6903929B690393039BAB
:102160002A460A992046FFF734FF48B1236C042B16
:1021700059D12268136843F40073136001234CE0C3
:10218000B8F1010F12D12368FFB21F612A460A99E4
:102190002046FFF71EFF00B3236C042B47D12268B3
:1021A000136843F400731360012336E023683A0A8E
:1021B0001A612A460A992046FFF70BFF48B1236CA3
:1021C000042B32D12268136843F400731360012397
:1021D00023E02368FFB21F61D8E72268136843F445
:1021E0008073136000950A9B00224FF00111204676
:1021F000FFF773FEE8B9236846F001061E612B461F
:102200000A9A0E492046FFF79CFE034628B1236C2C
:10221000042B10D1012300E00323184604B0BDE8CD
:10222000F0810323F9E70323F7E70323F5E703230B
:10223000F3E70323F1E70323EFE700BF0200010008
:1022400070B504460D46164623685B6913F0040F0B
:1022500019D12046FFF72CFEB8B9B5F1FF3FF3D0F6
:1022600025B1FFF747FB801BA842EDD9236C43F053
:102270002003236400232363202284F83D2084F874
:102280003C30032000E0002070BD0120FCE770B569
:1022900005460C4616462B685A6912F0400F22D1AB
:1022A0005A6912F0100F11D124B1FFF723FB801BE4
:1022B000A042F0D92B6C43F020032B64202385F837
:1022C0003D30002385F83C30032070BD6FF01002D4
:1022D0005A6100232B642B63202285F83D2085F86A
:1022E0003C300120F1E70020EFE70000002800F07B
:1022F000EB8010B504460368744A93420CD002F593
:102300008062934208D002F58062934204D04FF479
:10231000B7716F4801F08CFE6368013B6D4A9342D0
:1023200067D8A36813B1B3F5804F68D1E36823F48D
:102330007F7323F00303002B67D12369B3F5804F2C
:1023400002D0B3F5404F66D16369012B69D8A36908
:1023500033F0FE036BD1E3690BB1402B6DD1236ADF
:102360000BB1802B6FD194F83D30002B71D024231A
:1023700084F83D302268136823F00103136000F0F5
:10238000E3FE554BA3FB00239B0C2268536061685E
:10239000524A914263D801332268136263684F4AFC
:1023A000934266D85B00B0FBF3F0C0F30B03032B42
:1023B00000D804202368D861E369216A22680B43AE
:1023C00013602369E16822680B4393606369A16924
:1023D00022680B43D3602268136843F00103136043
:1023E00000202064202384F83D30206384F83E00E0
:1023F00010BD40F26F11364801F01AFE91E74FF41C
:10240000B871334801F014FE90E740F27111304882
:1024100001F00EFE91E74FF4B9712D4801F008FE6E
:1024200092E740F273112A4801F002FE8FE74FF461
:10243000BA71274801F0FCFD8DE740F27511244880
:1024400001F0F6FD8BE74FF4BB71214801F0F0FD80
:1024500089E784F83C30204601F048FA87E74FF4DA
:10246000967202FB03F31E4AA2FB03239B0901336E
:1024700092E7A16889B903EB4302B0FBF2F2C2F321
:102480000B02B2FA82F25209E2B991B903EB4303AB
:10249000B0FBF3F040F400408CE703EB830202EB67
:1024A0008202B0FBF2F2C2F30B02B2FA82F25209DC
:1024B000EAE703EB830303EB8303B0FBF3F040F4A1
:1024C000404077E7012075E7012070470054004045
:1024D000605400087F1A060083DE1B43A0860100BB
:1024E000D34D621038B310B504460368134A9342C3
:1024F0000CD002F58062934208D002F580629342CC
:1025000004D040F2BD110E4801F092FD242384F85E
:102510003D302268136823F001031360204601F068
:1025200011FA0020206484F83D00206384F83E0006
:1025300084F83C0010BD0120704700BF00540040EB
:10254000605400082DE9F04182B004460F469046E1
:102550001E46FFF7CFF90546012E01D0102E09D1F6
:1025600094F83D30DBB2202B0AD00223184602B08B
:10257000BDE8F08140F66B11544801F059FDEFE7DA
:1025800000951923012252492046FFF7A6FC002896
:1025900040F0938094F83C30012B00F090800123B0
:1025A00084F83C3023681A6812F0010F03D11A68CE
:1025B00042F001021A602268136823F4006313607A
:1025C000212384F83D30402384F83E3000232364E7
:1025D000089B6362BDF8243063853E4BE362638DE4
:1025E000238501950A9B009333464246394620468F
:1025F000FFF716FDB0B1236C042B04D1002384F83F
:102600003C300123B2E7002384F83C300323ADE7DC
:10261000236C042B55D12268136843F400731360B4
:102620000123A3E7238D002B28D02A460A992046B0
:10263000FFF7CFFC0028EBD1636A5A1C6262226864
:102640001B781361238D013B9BB22385628D013A78
:1026500092B262852268516911F0040FE2D0002B1A
:10266000E0D0636A591C61621B781361238D013BC2
:102670002385638D013B9BB26385D3E72A460A9984
:102680002046FFF7DDFD034648B1236C042B1AD129
:102690002268136843F400731360012366E721681E
:1026A0000A6842F400720A60202284F83D20002269
:1026B00084F83E2084F83C2058E7022356E70223A2
:1026C00054E7032352E7032350E700BF6054000898
:1026D000020010000000FFFF2DE9F04186B0044623
:1026E0000F4690461E46FFF705F90546012E01D01C
:1026F000102E09D194F83D30DBB2202B0AD00226EF
:10270000304606B0BDE8F0814FF41F618E4801F0FD
:102710008FFCEFE70095192301228C492046FFF733
:10272000DCFB002840F04D8194F83C30012B00F098
:102730004A81012384F83C3023681A6812F0010FA3
:1027400003D11A6842F001021A602268136823F468
:1027500000631360222384F83D30402384F83E3028
:10276000002323640C9B6362BDF834306385784B8F
:10277000E362638D238501950E9B009333464246A9
:1027800039462046FFF7B8FC064660B1236C042B9F
:1027900004D1002384F83C300126B1E7002384F8FB
:1027A0003C300326ACE7238D5BB9029323685A695A
:1027B00002929A690292029A1A6842F400721A60AE
:1027C00075E0012B0AD0022B1AD000230593236851
:1027D0005A6905929B690593059B68E02268136816
:1027E00023F4806313600023039323685A690392E0
:1027F0009A690392039A1A6842F400721A6056E0CA
:102800002268136823F4806313602268136843F41A
:10281000006313600023049323685A6904929B6940
:102820000493049B43E02A460E992046FFF72FFDB0
:1028300068B923681A69636A591C61621A70238D2A
:10284000013B2385638D013B9BB263852FE0236CA5
:10285000202B01D0012653E7032651E700950E9B5C
:1028600000223C492046FFF738FB002840F0AD80AD
:102870002268136843F40073136023681A69636A5B
:10288000591C61621A70238D013B2385638D013BC6
:102890009BB2638523681A69636A591C61621A7066
:1028A000238D013B2385638D013B9BB26385238D83
:1028B000002B7DD0032B4FD8012BB4D0022BCDD0D1
:1028C00000950E9B002223492046FFF706FB0028B7
:1028D0007DD12268136823F48063136023681A692A
:1028E000636A591C61621A70238D013B2385638DD5
:1028F000013B9BB2638500950E9B00221549204643
:10290000FFF7EBFA002864D12268136843F40073E0
:10291000136023681A69636A591C61621A70238DF7
:10292000013B2385638D013B9BB2638523681A6954
:10293000636A591C61621A70238D013B2385638D84
:10294000013B9BB26385B2E76054000802001000AF
:102950000000FFFF040001002A460E992046FFF701
:1029600096FCF0B923681A69636A591C61621A708F
:10297000238D013B2385638D013B9BB263852368D7
:102980005A6912F0040F92D01A69636A591C616285
:102990001A70238D013B2385638D013B9BB26385B8
:1029A00085E7236C202B01D00126A9E60326A7E6A4
:1029B000202384F83D30002384F83E3084F83C30F6
:1029C0009EE602269CE602269AE6032698E6032661
:1029D00096E6032694E600BF90F83D00704700009D
:1029E000002800F03B8270B582B0044603680F2BCC
:1029F00039D8236813F0010F4DD063682BB1B3F5BC
:102A0000803F02D0B3F5A02F32D1A54B9B6803F0D5
:102A10000C03042B36D0A24B9B6803F00C03082B4D
:102A20002BD06368B3F5803F5FD0B3F5A02F62D0A1
:102A30009B4B1A6822F480321A601A6822F48022B2
:102A40001A606368002B60D0FEF754FF0546944B74
:102A50001B6813F4003F1ED1FEF74CFF401B642897
:102A6000F5D90320FFE1F8218E4801F0E1FAC0E733
:102A7000FD218C4801F0DCFAC7E7894B5B6813F451
:102A8000800FCED0864B1B6813F4003F03D06368E1
:102A9000002B00F0E581236813F0020F67D0E36894
:102AA000012B41D823691F2B44D87D4B9B6813F021
:102AB0000C0F4AD07A4B9B6803F00C03082B3FD0D5
:102AC000E368002B77D0784B01221A60FEF712FFE3
:102AD0000546734B1B6813F0020F63D1FEF70AFF24
:102AE000401B0228F5D90320BDE16D4A136843F469
:102AF00080331360A5E76A4B1A6842F480221A609B
:102B00001A6842F480321A609BE7FEF7F3FE05462E
:102B1000634B1B6813F4003FBDD0FEF7EBFE401B78
:102B20006428F5D903209EE140F22F115D4801F0A1
:102B30007FFAB7E74FF498715A4801F079FAB4E791
:102B4000574B5B6813F4800FBAD1554B1B6813F0D9
:102B5000020F04D0E368012B01D0012083E1504A29
:102B6000136823F0F803216943EAC1031360236863
:102B700013F0080F49D06369012B2ED8636993B312
:102B80004A4B01221A60FEF7B5FE0546444B5B6FC7
:102B900013F0020F39D1FEF7ADFE401B0228F5D924
:102BA000032060E13E4A136823F0F803216943EAF9
:102BB000C1031360DBE73C4B00221A60FEF79AFE6C
:102BC0000546374B1B6813F0020FD0D0FEF792FE7C
:102BD000401B0228F5D9032045E14FF4B871314874
:102BE00001F026FACAE7314B00221A60FEF782FE96
:102BF00005462B4B5B6F13F0020F06D0FEF77AFEF3
:102C0000401B0228F5D903202DE1236813F0040F9F
:102C100000F08780A368012B01D9052B38D1204B08
:102C20001B6C13F0805F39D1002301931C4B1A6C8D
:102C300042F080521A641B6C03F080530193019B95
:102C400001251B4B1B6813F4807F33D0A368012B35
:102C500044D0052B48D0124B1A6F22F001021A679C
:102C60001A6F22F004021A67A368002B46D0FEF701
:102C700041FE06460A4B1B6F13F0020F4FD1FEF7C1
:102C800039FE801B41F288339842F3D90320EAE0F1
:102C90004FF4CE71034801F0CBF9C0E70025D0E72F
:102CA000003802409854000800004742800E474216
:102CB000007000406E4A136843F480731360FEF79F
:102CC00019FE06466A4B1B6813F4807FBED1FEF7DF
:102CD00011FE801B0228F5D90320C4E0654A136F5A
:102CE00043F001031367BFE7624B1A6F42F004021F
:102CF0001A671A6F42F001021A67B5E7FEF7FAFD8C
:102D000006465C4B1B6F13F0020F08D0FEF7F2FD76
:102D1000801B41F288339842F3D90320A3E0002DB1
:102D20003AD1A369022B3DD8A369002B00F09A8009
:102D3000504A926802F00C02082A00F09680022B9A
:102D400078D1E36913B1B3F5800F31D1236A3F2BFA
:102D500034D8636AC03BF02B36D8A36A022B05D067
:102D6000042B03D0062B01D0082B33D1E36A023B9E
:102D70000D2B35D8404B00221A60FEF7BBFD0546EF
:102D80003C4B1B6813F0007F30D0FEF7B3FD401BB7
:102D90000228F5D9032066E0364A136C23F08053ED
:102DA0001364BEE740F2DF11344801F041F9BBE79C
:102DB0004FF4F471314801F03BF9C7E740F2E911F3
:102DC0002E4801F035F9C4E74FF4F5712B4801F0B6
:102DD0002FF9C2E740F2EB11284801F029F9C5E7C5
:102DE0004FF4F671254801F023F9C3E7E369226A3D
:102DF0001343626A43EA8213A26A5208013A43EA21
:102E00000243E26A43EA02631A4A53601A4B012200
:102E10001A60FEF76FFD0446164B1B6813F0007F27
:102E200006D1FEF767FD001B0228F5D903201AE042
:102E3000002018E0104B00221A60FEF75BFD0446EC
:102E40000C4B1B6813F0007F06D0FEF753FD001BF0
:102E50000228F5D9032006E0002004E00120704795
:102E6000012000E0002002B070BD0120FBE700BFA0
:102E7000007000400038024060004742985400084B
:102E8000264B9B6803F00C03042B44D0082B01D085
:102E9000234870472DE9F04B204B5A6802F03F025F
:102EA0005B6813F4800F13D01C4B5968C1F3881171
:102EB00000231C48A1FB0001FDF726FE174B5B68B1
:102EC000C3F3014301335B00B0FBF3F0BDE8F08BCB
:102ED000124B5B68C3F388131E4600275C01002574
:102EE000E41A65EB0705A90141EA9461A001001B02
:102EF00061EB0501CB0043EA5073C400A01943EB1A
:102F000007018B0243EA90538402204619460023AE
:102F1000FDF7FAFDD2E70348704700BF00380240D2
:102F20000024F40040787D01002800F0F98070B59D
:102F300004460D460368013B0E2B11D8072D15D80A
:102F4000794B1B6803F00F03AB4215D2EBB2764A04
:102F50001370136803F00F03AB420DD0012070BD56
:102F60004FF41471714801F063F8E7E740F2512122
:102F70006E4801F05DF8E3E7236813F0020F29D0F3
:102F800013F0040F04D06A4A936843F4E05393604B
:102F9000236813F0080F04D0654A936843F4604334
:102FA0009360A3687BB1802B0DD0902B0BD0A02B0E
:102FB00009D0B02B07D0C02B05D0D02B03D0E02BED
:102FC00001D0F02B33D15A4A936823F0F003A16863
:102FD0000B439360236813F0010F42D06368032B07
:102FE0002BD86368012B2ED09A1E012A32D9504A61
:102FF000126812F0020F00F095804D498A6822F0A5
:10300000030213438B60FEF775FC0646484B9B6832
:1030100003F00C036268B3EB820F22D0FEF76AFC68
:10302000801B41F288339842F0D9032097E74FF490
:103030001D713E4800F0FCFFC5E740F27B213B4894
:1030400000F0F6FFCDE73A4A126812F4003FD4D1FF
:10305000012084E7364A126812F0007FCDD10120AA
:103060007DE7314B1B6803F00F03AB4209D9EAB28D
:103070002D4B1A701B6803F00F03AB4201D00120E7
:103080006DE7236813F0040F14D0E3685BB1B3F568
:10309000805F08D0B3F5A05F05D0B3F5C05F02D064
:1030A000B3F5E05F30D1224A936823F4E053E1683E
:1030B0000B439360236813F0080F15D023695BB1AD
:1030C000B3F5805F08D0B3F5A05F05D0B3F5C05F5E
:1030D00002D0B3F5E05F1DD1154A936823F4604335
:1030E000216943EAC1039360FFF7CAFE104B9B6856
:1030F000C3F303130F4AD35CD8400F4B1860002072
:10310000FEF7AEFB00202AE740F2B921074800F0A5
:103110008FFFC8E74FF43071044800F089FFDBE708
:103120000120704701201AE7003C02409854000833
:1031300000380240D05300088C000020014B186872
:10314000704700BF8C00002008B5FFF7F7FF044B65
:103150009B68C3F38223034AD35CD84008BD00BFF9
:1031600000380240E0530008F8B505460F46164601
:103170001C463BE02CB1FEF7BDFB069BC01AA042EB
:1031800034D32A68536823F0E00353606B68B3F5C7
:10319000827F0BD0AB6AB3F5005F14D0012385F8B2
:1031A0005130002385F85030032027E0AB68B3F599
:1031B000004F02D0B3F5806FECD12A68136823F07A
:1031C00040031360E6E72A68136823F400531B04E6
:1031D0001B0C13602A68136843F400531360DDE787
:1031E0000123B34209D0B4F1FF3FC3D12B689B68E0
:1031F00037EA0303F4D00023F3E70020F8BD10B54D
:1032000082B0044600920B4600228021FFF7ACFFFB
:10321000034610B9184602B010BD636D43F0200399
:1032200063650323F6E70000002800F0C88010B5AE
:1032300004460368634A934214D0A2F5784293424D
:1032400010D002F5806293420CD002F5784293428E
:1032500008D002F5E052934204D04FF487715A48E7
:1032600000F0E6FE636813B1B3F5827F6BD1A3680B
:103270002BB1B3F5806F02D0B3F5004F69D1E3688D
:10328000B3F5006F01D0002B69D1A369B3F5007FBE
:1032900003D013B1B3F5802F67D1E3696BB1082B6D
:1032A0000BD0102B09D0182B07D0202B05D0282BA2
:1032B00003D0302B01D0382B5DD1236A0BB1802B8A
:1032C0005FD1636A0BB1102B61D1636A33B9236993
:1032D0000BB1022B61D16369012B64D80023A36277
:1032E00094F85130002B64D0022384F851302268C6
:1032F000136823F0400313606368A2681343E26815
:1033000013432269134362691343A26902F40072F2
:103310001343E2691343226A1343A16A22680B43F1
:103320001360638B03F00403616A22680B435360EC
:103330002268D36923F40063D36100206065012310
:1033400084F8513010BD40F20F111F4800F070FE9C
:103350008DE74FF488711C4800F06AFE8FE740F259
:103360001111194800F064FE8FE74FF48971164877
:1033700000F05EFE91E740F21311134800F058FE92
:103380009BE74FF48A71104800F052FE99E740F233
:1033900015110D4800F04CFE97E74FF48C710A4868
:1033A00000F046FE97E740F21911074800F040FE92
:1033B00094E784F85030204600F060FE94E7012046
:1033C000704700BF00300140D054000860B310B512
:1033D00004460368154A934214D0A2F578429342FA
:1033E00010D002F5806293420CD002F578429342ED
:1033F00008D002F5E052934204D04FF4B0710C486B
:1034000000F016FE022384F851302268136823F07E
:1034100040031360204600F05BFE0020606584F8E6
:10342000510084F8500010BD012070470030014069
:10343000D05400082DE9F04184B004460D46904672
:103440001E46836813B1B3F5004F1AD194F850307B
:10345000012B00F0CB80012384F85030FEF74AFAAC
:10346000074694F85130DBB2012B10D00223012221
:1034700084F85120002284F85020184604B0BDE89A
:10348000F08140F2C5115A4800F0D2FDDEE7002D70
:1034900000F0A480B8F1000F00F0A280032384F8AC
:1034A0005130002363652563A4F83480A4F8368086
:1034B000A363A387E38763642364A368B3F5004F22
:1034C0001BD023681A6812F0400F03D11A6842F02B
:1034D00040021A60E368B3F5006F14D063681BB153
:1034E000E38E9BB2012B3ED1236815F8012B1A7392
:1034F000E38E013B9BB2E38635E02268136843F418
:1035000080431360DDE763681BB1E38E9BB2012B40
:103510000DD1236835F8022BDA60E38E013B9BB2B4
:10352000E38604E0002E5DD0B6F1FF3F0FD1E38EBD
:103530009BB27BB323689A6812F0020FF2D035F881
:10354000022BDA60E38E013B9BB2E386EFE7FEF7E6
:10355000D1F9C01BB042EAD3032388E7002E43D041
:10356000B6F1FF3F0FD1E38E9BB29BB123689A68FF
:1035700012F0020FF2D015F8012B1A73E38E013B03
:103580009BB2E386EFE7FEF7B5F9C01BB042EAD382
:1035900003236CE700973346012202212046FFF700
:1035A000E3FD08B1032362E73A4631462046FFF7C0
:1035B00026FE034618B120236365012357E7A2685E
:1035C00032B903922268D168039192680392039AF8
:1035D000626D002A3FF44BAF012348E7012346E721
:1035E000012344E7032342E7032340E7022344E7A0
:1035F000D05400082DE9F04385B004460F46164626
:1036000099460C9D8368F3B994F85030012B00F073
:103610001381012384F85030FEF76CF9804694F84A
:103620005130DBB26268012B1BD0B2F5827F10D023
:103630000223012284F85120002284F850201846E9
:1036400005B0BDE8F08340F23A317C4800F0F0FC70
:10365000DAE7A268002A40F0E780042B01D00223B9
:10366000E7E7002F00F0E280002E00F0E180B9F1E2
:10367000000F00F0DF8094F85130DBB2012B2BD02B
:1036800000236365A663A4F83E90A4F83C902763EA
:10369000A4F83690A4F834902364636423681A680D
:1036A00012F0400F03D11A6842F040021A60E3683A
:1036B000B3F5006F14D063681BB1E38E9BB2012B8E
:1036C00007D1236817F8012B1A73E38E013B9BB2D5
:1036D000E3864FF0010961E0052384F85130CFE71C
:1036E00063681BB1E38E9BB2012B07D1236837F8C7
:1036F000022BDA60E38E013B9BB2E3864FF00109B7
:1037000013E0E38F9BB26BB123689A6812F0010F4C
:1037100008D0DB6826F8023BE38F013B9BB2E387CE
:103720004FF00109B5F1FF3F1CD1E38E9BB21BB9ED
:10373000E38F9BB2002B55D0B9F1000FE1D0E38E9F
:103740009BB2002BDDD023689A6812F0020FD8D00C
:1037500037F8022BDA60E38E013B9BB2E3864FF031
:103760000009CEE7FEF7C6F8A0EB0800A842DCD3BC
:1037700003235EE7E38F9BB26BB123689A6812F074
:10378000010F08D0DB683370E38F013B9BB2E38706
:1037900001364FF00109B5F1FF3F1BD1E38E9BB21B
:1037A00013B9E38F9BB2EBB1B9F1000FE2D0E38E16
:1037B0009BB2002BDED023689A6812F0020FD9D09A
:1037C0003A781A73E38E013B9BB2E38601374FF0E0
:1037D0000009CFE7FEF78EF8A0EB0800A842DDD382
:1037E000032326E7CDF800802B4601220221204644
:1037F000FFF7BAFC08B103231BE7424629462046DF
:10380000FFF7FDFC034618B120236365012310E791
:10381000A268002A7FF40DAF03922268D168039159
:1038200092680392039A04E7022302E7012300E768
:103830000123FEE60123FCE6022300E7D054000842
:1038400090F851007047000030B589B00024019411
:10385000134B1A6B42F080021A631A6B02F080025B
:103860000192019A02941A6B42F002021A631B6BD6
:1038700003F002030293029B0A4D22464FF4A84133
:103880002846FEF7F9FA4FF4A84303930123049363
:103890000594069403A92846FEF7FAF809B030BD4E
:1038A000003802400004024008B50C480C4B03608D
:1038B0000C4B436000238360C3604FF4804202617D
:1038C00043618361C3610362FEF710FD00B908BD67
:1038D0004221054800F042FAF9E700BF4403002006
:1038E00000540040A0860100085500080268124BF1
:1038F0009A4200D0704700B587B04FF4107301931F
:1039000012230293012303930323049304230593B7
:103910000DEB03010948FEF7BBF800230093084BA9
:103920001A6C42F400121A641B6C03F40013009327
:10393000009B07B05DF804FB005400400004024007
:103940000038024008B50268074B9A4200D008BD13
:10395000064A136C23F4001313644FF410710448E7
:10396000FEF7F0F9F3E700BF0054004000380240D2
:1039700000040240F0B585B00A9CB4F90A50002D4D
:103980000DDBB4F90860002E09DB0636B4F90470CB
:10399000BE4204D80835B4F90660B54201D905B075
:1039A000F0BDB4F90050B4F9026002EB42046200C9
:1039B0000B9C0294B3FA83F35B09019308230093F1
:1039C0000623034C22443144284400F09CF8E6E7E7
:1039D000C04D000810815181704708B543890933F3
:1039E000438102230381037B03B908BD084600F02D
:1039F0006FF9FAE7F0B583B005460F4614461E4648
:103A000014E0B4F90800B4F90A10019600943B469A
:103A1000FFF7B0FF0EE02B780A2B17D0B4F90A306D
:103A20000833B4F9062093421ED801352A78DAB15A
:103A30000A2AE6D1238906331BB223810633B4F95F
:103A400004209342E7D96B780A2BE4D03146204614
:103A5000FFF7C3FF00F04EFD6B781844437813F076
:103A6000080FDBD00135D9E703B0F0BD0CB470B559
:103A70009AB004460E461EAB53F8042B0093642103
:103A800001A800F083FD0546234604F50572314682
:103A900001A8FFF7AFFF94F820322BB928461AB0DF
:103AA000BDE8704002B07047204600F011F9F5E71C
:103AB000002303E0C218002111770133B3F5FC7F26
:103AC000F8DB704700281DDB00291BDB532819DCBD
:103AD0002F2917DC30B4CC10542505FB040001F06D
:103AE0000701012404FA01F1C9B22AB103441A7F83
:103AF0001143197730BC704703441A7F22EA010151
:103B00001977F7E770472DE9F84F83468A469146C3
:103B10001E460A9FDDF82C80002525E0E31D08E005
:103B20000C9BFFF7CFFF0134BC421CDA2346002C6C
:103B3000F4DBDB1006FB035319F80300614204F0C9
:103B4000070301F0070158BF4B4201229A4002408F
:103B500005EB0B0004EB0A01B8F1000FE0D0B2FA5C
:103B600082F25209DCE70135B54201DA0024DBE7D5
:103B7000BDE8F88F20F02003072B01DD01207047FE
:103B800010B582B00C4640F0200002A901F8010DEA
:103B90004FF47A7301222068FFF74CFC002002B03A
:103BA00010BD30B583B030F00D050CD10C4602A924
:103BB00001F8010D4FF47A7301222068FFF73AFCF7
:103BC000284603B030BD0225FAE7032810D810B507
:103BD00082B00C4640F0040002A901F8010D4FF438
:103BE0007A7301222068FFF725FC002002B010BD87
:103BF00004207047072810D810B582B00C4640F05A
:103C0000100002A901F8010D4FF47A730122206817
:103C1000FFF710FC002002B010BD0520704710F027
:103C2000800F10D110B582B00C4640F0800002A980
:103C300001F8010D4FF47A7301222068FFF7FAFBB7
:103C4000002002B010BD03207047F0B583B00446D9
:103C50000D4617461E4603681A68136843F0400372
:103C60001360002281888068FEF706F90022A1898E
:103C70002069FEF701F964230193019B013B019345
:103C8000002BFAD10122A1892069FEF7F5F8002264
:103C9000A18AA069FEF7F0F821460120FFF76AFF2C
:103CA00021463846FFF7BBFF21463046FFF78DFF20
:103CB00021469DF82000FFF79DFF21460020FFF7D9
:103CC00059FF21462846FFF76CFF002003B0F0BDE6
:103CD00010B582B00446002281888068FEF7CCF8D7
:103CE0000022A18AA069FEF7C7F802A9802301F883
:103CF000013D4FF47A7301222068FFF79BFB02A974
:103D0000402301F8023D4FF47A7301222068FFF747
:103D100091FB0122A18AA069FEF7AEF84FF47A73F5
:103D20004FF4FC7204F11C012068FFF783FB02B022
:103D300010BD000010B54FF47A70FDF7E1FD064CA0
:103D40002046FFF7B5FE234604F50572002108461C
:103D5000FFF740FE10BD00BF98030020FEE7000003
:103D600000B595B000230193234A116C41F08051B6
:103D70001164126C02F080520192019A02931F4A60
:103D8000116841F440411160126802F4404202920D
:103D9000029A0222089201220B9210220C920E9398
:103DA00008A8FEF71DFEF0B90F230393002104912C
:103DB00005910691079103A8FFF7B6F8B8B9FFF788
:103DC000BDF90F4BA3FB00308009FDF727FE04204F
:103DD000FDF73AFE002211464FF0FF30FDF7C2FD1D
:103DE00015B05DF804FBBD210648FFF7B7FFCB21F6
:103DF0000448FFF7B3FF00BF0038024000700040E6
:103E0000D34D6210185500082DE9F04F89B0FDF729
:103E10004BFDFFF7A5FFFFF717FD00F00BF9FFF7CC
:103E200043FD784C784B23604FF48043A38003F12B
:103E3000804303F5E233A3604FF48062A2812361E3
:103E40004FF48052A282A361704D04F50573286877
:103E50006968AA6807C3AA891A800323009302230A
:103E600040220C212046FFF7F0FEFDF799FC18B91F
:103E7000FDF7CAFC029040B1624A134602F5057292
:103E800001216348FFF7B6FDFEE700230693ADF876
:103E90001C300493ADF81430029B039307E0039B9E
:103EA0005C4A01215748FFF7E1FDFFF743FF06A8F1
:103EB000FDF790FC04A8FDF7C9FCBDF91020564B96
:103EC00083FB0201D217C2EBA1120FFA82FBBDF9EC
:103ED000122083FB0201D417C4EBA11424B2BDF954
:103EE000142083FB0201D517C5EBA1152DB2BDF936
:103EF000182083FB0201D617C6EBA11636B2BDF916
:103F00001A2083FB0201D717C7EBA1173FB2BDF9F7
:103F10001C8083FB08234FEAE878C8EBA3130FFA51
:103F200083F807FB07F006FB060008FB0800FCF718
:103F3000A9FA41EC100B00F08BF951EC100BFCF7D7
:103F4000BBFD8246DFF8BC904B4609F505720121A6
:103F50003248FFF74FFDCDF8048000973346304AD2
:103F600001214846FFF782FD53462E4A012148466B
:103F7000FFF77CFD4B4609F5057201212A48FFF742
:103F800039FD029B534501DACDF808A01D4E029B76
:103F9000204A01213046FFF769FDFFF7CBFE04FB05
:103FA00004F00BFB0B0005FB0500FCF76BFA41EC82
:103FB000100B00F04DF951EC100BFCF77DFD07469E
:103FC00006F505783346424601211848FFF712FDF1
:103FD000019500945B46124A01213046FFF746FDE9
:103FE0003B46104A01213046FFF740FD334642462A
:103FF00001210D48FFF7FEFC039BBB42BFF64FAF0C
:1040000003974CE798030020BC050020C05300082C
:10401000285500087C550008D34D62104055000813
:10402000505500085C5500086C5500088055000884
:104030007047000008B50E480E4B03604FF48273C2
:10404000436000238360C360036143614FF40072E7
:104050008261C3610362436283620A23C362FFF722
:10406000E3F800B908BD45210348FFF777FEF9E7FB
:10407000BC050020003800408C5500080268124B37
:104080009A4200D0704700B587B00021009103F537
:1040900000331A6C42F480421A641B6C03F48043B0
:1040A0000093009B4FF4204301930223029303915A
:1040B000032304930523059301A90448FDF7E8FCB5
:1040C00007B05DF804FB00BF003800400004024068
:1040D00008B50268074B9A4200D008BD064A136C27
:1040E00023F4804313644FF420410448FDF72AFE73
:1040F000F3E700BF003800400038024000040240EF
:1041000010B582B000240094214B5A6C42F48042D6
:104110005A645A6C02F480420092009A01941A6C1C
:1041200042F080521A641B6C03F080530193019B90
:104130000320FDF7F9FB224621466FF00B00FDF747
:1041400011FC224621466FF00A00FDF70BFC2246C7
:1041500021466FF00900FDF705FC224621466FF06D
:104160000400FDF7FFFB224621466FF00300FDF738
:10417000F9FB224621466FF00100FDF7F3FB2246D2
:1041800021464FF0FF30FDF7EDFB02B010BD00BF40
:10419000003802407047FEE7FEE7FEE7FEE77047A3
:1041A0007047704708B5FDF799FBFDF76CFC08BD3B
:1041B0000F49D1F8883043F47003C1F888300D4BB3
:1041C0001A6842F001021A60002098601A6822F012
:1041D000847222F480321A60074A5A601A6822F404
:1041E00080221A60D8604FF000638B60704700BF78
:1041F00000ED00E00038024010300024DFF834D039
:10420000002103E00C4B5B58435004310B480C4B2E
:1042100042189A42F6D30B4A02E0002342F8043BCC
:10422000094B9A42F9D3FFF7C3FF00F03FF9FFF7BC
:10423000EBFD704700000220F4560008000000204B
:10424000640200206402002018060020FEE700003F
:104250002DE9F0432DED028B8BB055EC104B00F0A7
:1042600053F8274BB0EE408AF0EE608A93F9006075
:10427000731C12D022462B4620462946FCF706FC2A
:10428000074650B94FF000084FF000092046294674
:1042900042464B46FCF7D2FB40B9B0EE480AF0EE7E
:1042A000680A0BB0BDEC028BBDE8F0830122154B10
:1042B00008970092CDE90445CDE90245019396B1F6
:1042C00042464B4640464946FCF770FA022ECDE97D
:1042D00006010AD100F0E4F821230360089B53B9DA
:1042E0009DED068BD9E7CDE90689684600F0D6F842
:1042F0000028F3D1EEE700F0D3F8089B0360EFE766
:10430000900000209C5500082DE9F041624A57ECCE
:10431000106BBA4300F09580002F3B4610EE101A48
:10432000344654DD3F1500F0AF80C3F31303A7F20A
:10433000FF3743F48013E20FF90702EB43034FEA20
:10434000440503D5ED0F05EB4303A50000267F10C0
:10435000B44616224FF400110CEB010098424FEACC
:10436000D5744FEA450503DC1B1A00EB010C0E4423
:10437000013A04EB43034FEA5101EDD11046964652
:1043800020244FF0004209E052D05B00013C03EBD7
:10439000D5734FEA52024FEA450536D0634502EB2A
:1043A0000E01F1DD002901EB020E0ADBE046A3EB72
:1043B0000C03A94288BF03F1FF336D1A1044C446B1
:1043C000E3E7BEF1000FF1DB0CF10108EFE727F0A6
:1043D000004232432AD0002F49D1CA0A153B490571
:1043E000002AFAD012F4801001D050E0204652008A
:1043F000D50200F10104F9D5C4F1200501FA04F455
:10440000E9401F1A41EA02038FE72B4329D14408F0
:104410007110F30701F17F5101F5001148BF44F01D
:10442000004401EB0753224643EC102BBDE8F0811A
:10443000A942AAD8002901EB020EC2DB984600234C
:10444000BBE710EE102A3B4610EE100A3946FCF787
:1044500083F832463B46FBF7C9FE41EC100BBDE842
:10446000F081421C16BF421C01365408D0E710EE02
:10447000102A30463946FBF7B7FE02460B46FCF7DA
:1044800095F941EC100BD1E71A463B46AAE70C46DA
:1044900020254FF0FF30B3E70000F07F0020704789
:1044A000014B1868704700BF9400002070B50D4E96
:1044B0000D4CA41BA4100025A54209D10B4E0C4C99
:1044C00000F072FCA41BA4100025A54205D170BD0C
:1044D00056F8253098470135EEE756F825309847CD
:1044E0000135F2E7EC560008EC560008EC560008DF
:1044F000F0560008044B054A1B681B6A002B08BFD6
:104500001346D3F8EC00704794000020F800002018
:1045100082B001B901A942B14BB113780B60127896
:10452000101C18BF012002B070471046FBE76FF067
:104530000100F8E730B5141E05469BB0184605DAB1
:104540008B232B604FF0FF301BB030BD4FF4027354
:10455000ADF80C3014BF04F1FF33234602930593EA
:104560004FF6FF7300910491ADF80E3002461E9B8A
:104570006946284600F080F8431CBCBF8B232B60A3
:10458000002CE1D0009B00221A70DDE707B50093F4
:1045900013460A46014603480068FFF7CBFF03B005
:1045A0005DF804FB9400002049B1FF2A85BF8A23EF
:1045B00003600A704FF0FF3098BF01207047084633
:1045C00070472DE9F0478E689E4282460C46904621
:1045D000994637D88A8912F4906F31D025680969D5
:1045E0006F1A6569022305EB450595FBF3F509F1A3
:1045F00001033B449D4238BF1D46530530D5294633
:1046000000F02AFB064650B90C23CAF80030A389F3
:1046100043F04003A3814FF0FF30BDE8F0873A46F6
:10462000216900F0A7FAA38923F4906343F0800383
:10463000A381266165613E44ED1B2660A5604E4660
:104640004E4500D94E4632464146206800F09DFA5C
:10465000A3689B1BA36023681E4426600020DCE740
:104660002A4600F053FB06460028E2D12169504655
:1046700000F0A4FAC8E700002DE9F04F9DB0804695
:1046800003938B891D060C4616460FD50B696BB933
:10469000402100F0E1FA2060206128B90C23C8F81D
:1046A00000304FF0FF30C7E04023636100230993DF
:1046B00020238DF8293030238DF82A304FF0010B5C
:1046C00037463D4615F8013B0BB1252B3ED1B7EBE4
:1046D000060A0BD05346324621464046FFF771FF8B
:1046E000013000F0A480099B534409933B78002BD0
:1046F00000F09D8000234FF0FF32CDE905230493A5
:1047000007938DF853301A932F46052217F8011B93
:104710004F48FCF77DFB049BD0B9D90644BF20224B
:104720008DF853201A0744BF2B228DF853202A7886
:104730002A2A15D0079A2F4600200A25394611F853
:10474000013B303B092B4DD9B8B10FE02F46B8E7FC
:104750003F4A801A0BFA00F0184304903D46D3E715
:10476000039A111D12680391002A01DB079204E0ED
:10477000524243F00203079204933B782E2B0CD154
:104780007B782A2B33D1039B1A1D1B680392002BC5
:10479000B8BF4FF0FF33023705932E4D397803220F
:1047A0002846FCF735FB38B14023401B03FA00F0E4
:1047B000049B034301370493397827488DF8281068
:1047C00006227E1CFCF724FB002838D0234B13BBA9
:1047D000039B073323F0070308330393099B4B44E0
:1047E00009936DE705FB023201200F46A6E700237F
:1047F0000137059319460A25384610F8012B303A3F
:10480000092A03D9002BC8D00591C6E705FB012171
:1048100001230746F0E703AB00932246104B04A99F
:104820004046AFF30080B0F1FF3F8146D6D1A38967
:104830005B063FF536AF09981DB0BDE8F08F03ABBE
:1048400000932246064B04A9404600F081F8EAE7AF
:10485000AF560008B5560008B95600080000000021
:10486000C34500082DE9F04791461F468A680B6949
:10487000DDF820809342B8BF1346C9F8003091F8A4
:10488000432006460C4612B10133C9F800302368B4
:10489000990642BFD9F800300233C9F800302568C4
:1048A00015F0060507D104F1190AE368D9F80020CC
:1048B0009B1AAB4228DC94F843302268003318BFBF
:1048C000012392062DD404F1430239463046C047F5
:1048D000013020D02368E568D9F8002003F00603F2
:1048E000042B08BFAD1AA36822690CBF25EAE57541
:1048F00000259342C4BF9B1AED184FF000091A34EB
:104900004D451AD1002008E0012352463946304671
:10491000C047013003D14FF0FF30BDE8F0870135CB
:10492000C3E7E1185A1C302081F84300224494F870
:10493000451082F843100233C5E701232246394669
:104940003046C0470130E6D009F10109D8E7000040
:104950002DE9F04301F1430C0C46097E85B06E2928
:104960001746064698460C9A00F0B38022D8632971
:1049700036D00AD8002900F0B980582900F0838089
:1049800004F1420584F8421032E0642901D069291B
:10499000F6D120681368050603F104012AD51B68C7
:1049A0001160002B03DA2D225B4284F843206F480C
:1049B0000A2239E0732900F09D8008D86F2920D0A1
:1049C0007029DDD1236843F02003236003E07529BB
:1049D00017D07829D4D1782384F84530644855E03D
:1049E0001368191D1B68116004F1420584F84230F8
:1049F00001238CE01B68116010F0400F18BF1BB240
:104A0000CFE713682568181D1060280601D51B68BC
:104A100002E06806FBD51B8854486F2914BF0A22A0
:104A20000822002184F843106568A560002DC0F2BB
:104A30009580216821F004012160002B3DD1002DDB
:104A400040F08E806546082A0BD12368DB0708D525
:104A5000236962689A42DEBF302305F8013C05F104
:104A6000FF35ACEB05032361CDF800803B4603AA7C
:104A700021463046FFF7F6FE01304DD14FF0FF30B2
:104A800005B0BDE8F083394884F845101368216803
:104A90001D1D1B6815600A060BD5CA0744BF41F0EF
:104AA000200121601BB9226822F02002226010221E
:104AB000B7E74D0648BF9BB2EFE76546B3FBF2F19F
:104AC00002FB1133C35C05F8013D0B460029F5D10B
:104AD000B9E7136825686169181D106028061B680E
:104AE00001D5196002E06A06FBD519800023236115
:104AF0006546B9E71368191D11601D6862680021D9
:104B00002846FCF785F908B1401B606063682361A3
:104B1000002384F84330A7E723692A463946304604
:104B2000C0470130AAD023689B0713D4E068039BD9
:104B30009842B8BF1846A3E701234A463946304693
:104B4000C04701309AD00135E368039A9B1AAB4203
:104B5000F2DCEBE7002504F11909F5E7002BACD1F5
:104B6000037884F8423004F142056CE7C05600082F
:104B7000D156000810B5431E0A44914200D110BD21
:104B800011F8014B03F8014FF7E7884210B501EB2C
:104B9000020307D8421E99420AD011F8014B02F8CD
:104BA000014FF8E78342F5D98118D21AD34200D1D8
:104BB00010BD13F8014D01F8014DF7E738B5054672
:104BC000002945D051F8043C0C1F002BB8BFE41855
:104BD00000F0D2F81F4A1368104633B963601460BE
:104BE0002846BDE8384000F0C8B8A3420CD9216877
:104BF0006218934204BF1A685B68636004BF52186E
:104C000022600460ECE713465A680AB1A242FAD95E
:104C100019685818A0420BD12068014458188242E4
:104C20001960DDD1106852685A6001441960D7E7F5
:104C300002D90C232B60D3E7206821188A4204BFD5
:104C400011685268626004BF091821605C60C7E7A0
:104C500038BD00BF3403002070B5CD1C25F003051E
:104C600008350C2D38BF0C25002D064601DBA94266
:104C700003D90C233360002070BD00F07DF8214A79
:104C80001468214691B9204C23681BB9304600F0C6
:104C900063F820602946304600F05EF8431C24D1BA
:104CA0000C233360304600F068F8E4E70B685B1BC8
:104CB00018D40B2B0FD90B60CD50CC18304600F018
:104CC0005CF804F10B00231D20F00700C31AD3D0B9
:104CD0005A42E250D0E78C424B6816BF63601360C3
:104CE0000C46EBE70C464968CCE7C41C24F00304EF
:104CF000A04205D0211A304600F02EF80130CFD066
:104D00002560DBE73403002038030020F8B50746B0
:104D100014460E4621B91146BDE8F840FFF79CBF86
:104D200022B9FFF74BFF25462846F8BD00F026F8CC
:104D3000A0420FD221463846FFF78EFF05460028D5
:104D4000F2D031462246FFF715FF31463846FFF7CD
:104D500035FFE9E73546E7E738B5064C0023054659
:104D60000846236000F012F8431C02D1236803B107
:104D70002B6038BD140600207047704751F8043C82
:104D8000181F002BBCBF0B58C0187047044A0549B8
:104D90001368002B08BF0B46184410601846704774
:104DA0003C03002018060020F8B500BFF8BC08BC82
:104DB0009E467047F8B500BFF8BC08BC9E467047D9
:104DC00000000000000000000000000000000000E3
:104DD00000000000000000000000000000000000D3
:104DE00000000000000000000000000000000000C3
:104DF00000000000000000000000000000000000B3
:104E000000000000000000000000000000000000A2
:104E10000000000000000000000000000000000092
:104E20000000000000000000000000000000000082
:104E30000000000000000000000000000000000072
:104E40000000000000000000000000000000000062
:104E50000000000000000000000000000000000052
:104E60000000000000000000000000000000000042
:104E70000000000000000000000000000000000032
:104E800000000000000000005F00000000070007B5
:104E90000000147F147F1400242A6B2A12002313AD
:104EA00008646200364956205000000007000000E8
:104EB000001C224100000041221C00000A040E04D4
:104EC0000A0008083E0808000040300000000808FA
:104ED000080808000060600000004030080601007B
:104EE0003E5149453E0000427F4000007249494919
:104EF00046002141494D33001814127F1000274508
:104F0000454539003E494949320041211109070010
:104F1000364949493600264949493E0000001400F7
:104F20000000004034000000081422410000141466
:104F3000141414000041221408000201590906004B
:104F40003E415D4926007C1211127C007F4949498F
:104F500036003E41414122007F4141413E007F49B0
:104F6000494941007F09090103003E414151730055
:104F70007F0808087F0000417F4100002040413F3A
:104F800001007F08142241007F40404060007F0202
:104F90001C027F007F0408107F003E4141413E001B
:104FA0007F09090906003E4151215E007F09192948
:104FB000460026494949320003017F0103003F4072
:104FC00040403F001F2040201F003F4038403F002E
:104FD0006314081463000304780403006351494513
:104FE0006300007F4141000001060830400000419D
:104FF000417F0000040201020400404040404000A4
:105000000001020400002054547840007F284444EA
:105010003800384444442800384444287F00385439
:105020005454180000087E09020018A4A49C7800BB
:105030007F080404780000447D4000002040403D8B
:1050400000007F102844000000417F4000007C04E5
:10505000780478007C08040478003844444438001C
:10506000FC182424180018242418FC007C080404CC
:10507000080048545454240004043F4424003C4095
:1050800040207C001C2040201C003C4030403C0064
:105090004428102844004C9090907C004464544C68
:1050A0004400000836410000000077000000004185
:1050B000360800000804081008003C2623263C009F
:1050C0007F11094830007C040504000000403000D6
:1050D000000000780A090000403000403000400025
:1050E0004000400000027F02000000227F220000FA
:1050F0003E55554122001308640260007C027F483F
:1051000030000008140000007F087F4830007E183F
:10511000192442007F11090870007F40C0407F00C1
:105120007F128A70000000000601000000040300E6
:105130000000060100060100040300040300000C47
:105140000C00000000080808000008080808080013
:1051500000000000000078112711780070087C50D2
:1051600020000000140800007C107C5020007C10FF
:10517000122944007F120A7000007C40C0407C006D
:1051800000000000000023443904030024493209D0
:10519000040020413F0100005D2222225D007E02CA
:1051A00002020100000077000000004A55290000BB
:1051B0007C55544500003E7F63773E003E4949419F
:1051C000220008140008140008080808180000004D
:1051D000000000003E5F4B553E0000457C4500004E
:1051E00000040A04000044445F44440000417F413D
:1051F000000000447D4000007C04040200007C109C
:10520000103C4000060F7F017F00000008000000F6
:105210003855545518007C10207C010038545444F3
:10522000280014080014080020403D0000006649D2
:105230004949330008545454200000457C41000083
:105240007C1211127C007F49494930007F4949494D
:1052500036007F0101010100C07E417FC0007F490F
:105260004949410077087F087700004949493600DD
:105270007F1008047F007F1009047F007F0814223C
:1052800041007C0201017F007F020C027F007F0849
:1052900008087F003E4141413E007F0101017F003F
:1052A0007F09090906003E414141220001017F01B9
:1052B0000100074848483F000E117F110E0063149B
:1052C000081463007F40407FC000070808087F0083
:1052D0007F407F407F007F407F40FF00017F484844
:1052E00030007F4830007F007F484848300022412E
:1052F00049493E007F083E413E00462919097F008A
:105300002054545478007C54545420007C545454F9
:1053100028007C0404040000C078447CC000385499
:10532000545418006C107C106C0000545454280025
:105330007C2010087C007C2012087C007C10102847
:105340004400700804047C007C0810087C007C1079
:1053500010107C003844444438007C0404047C0071
:105360007C141414080038444444280004047C04C9
:1053700004000C5050503C003844FC443800442891
:10538000102844007C40407CC0000C1010107C00B1
:105390007C407C407C007C407C40FC00047C505085
:1053A00020007C5020007C007C50502000002844CD
:1053B000545438007C1038443800483414147C00AD
:1053C0000000000054003000000000000100000058
:1053D00000000000000000000102030406070809A5
:1053E00000000000010203042E2E2F44726976652E
:1053F00072732F53544D3332463478785F48414CA2
:105400005F4472697665722F5372632F73746D33C4
:1054100032663478785F68616C5F636F7274657848
:105420002E6300002E2E2F447269766572732F53FF
:10543000544D3332463478785F48414C5F4472694A
:105440007665722F5372632F73746D3332663478BE
:10545000785F68616C5F6770696F2E6300000000A1
:105460002E2E2F447269766572732F53544D33324A
:10547000463478785F48414C5F4472697665722F94
:105480005372632F73746D3332663478785F68615A
:105490006C5F6932632E63002E2E2F44726976652D
:1054A00072732F53544D3332463478785F48414CF1
:1054B0005F4472697665722F5372632F73746D3314
:1054C00032663478785F68616C5F7263632E630064
:1054D0002E2E2F447269766572732F53544D3332DA
:1054E000463478785F48414C5F4472697665722F24
:1054F0005372632F73746D3332663478785F6861EA
:105500006C5F7370692E63002E2E2F5372632F69A8
:1055100032632E63000000002E2E2F5372632F6D16
:1055200061696E2E630000004572726F7220696EB1
:10553000697469616C697A696E672048414C2E0014
:10554000416363656C20444154413A0A0000000005
:105550002569202569202569200A00004C656E67B1
:105560007468203D2025640A00000000546865200E
:10557000626967676573743A0A0000002564000079
:105580004759524F20444154413A0A002E2E2F537E
:1055900072632F7370692E63000000007371727460
:1055A000000000004300504F534958002E000020D7
:1055B00020202020202020202828282828202020C3
:1055C0002020202020202020202020202020208873
:1055D00010101010101010101010101010101004D7
:1055E0000404040404040404041010101010101027
:1055F000414141414141010101010101010101011B
:105600000101010101010101010110101010101030
:1056100042424242424202020202020202020202EA
:105620000202020202020202020210101010200006
:10563000000000000000000000000000000000006A
:10564000000000000000000000000000000000005A
:10565000000000000000000000000000000000004A
:10566000000000000000000000000000000000003A
:10567000000000000000000000000000000000002A
:10568000000000000000000000000000000000001A
:10569000000000000000000000000000000000000A
:1056A00000000000000000000000000000000023D7
:1056B0002D302B2000686C4C00656667454647001E
:1056C0003031323334353637383941424344454638
:1056D00000303132333435363738396162636465CE
:0456E0006600000060
:0856E40054B4FF7F0100000037
:0456EC00C5010008EC
:0456F000A10100080C
:1056F400B30E0008B10E0008010F00081F0F0008C8
:10570400E70E00084D0F0008AD0F0008F30F000866
:1057140000000000000000003510000865100008BB
:10572400951000088311000881110008A1110008D8
:10573400B1110008000000008913000800000000F7
:10574400000000000000000000000000CB11000871
:10575400E7110008031200080010000000A0000078
:10576400000C0240000C0240000C0240000C0240FD
:105774000000024001000000100000000024F400BA
:10578400010000009800002000000000000000005C
:105794000000000000000000000000000000000005
:1057A40000000000000000000000000000000000F5
:1057B40000000000000000000000000000000000E5
:1057C40000000000000000000000000000000000D5
:1057D40000000000000000000000000000000000C5
:1057E4000000000000000000430000000000000072
:1057F40000000000000000000000000000000000A5
:105804000000000000000000430000000000000051
:105814000000000000000000000000000000000084
:105824000000000000000000430000000000000031
:105834000000000000000000000000000000000064
:105844000000000000000000430000000000000011
:105854000000000000000000000000000000000044
:1058640000000000000000004300000000000000F1
:105874000000000000000000000000000000000024
:1058840000000000000000004300000000000000D1
:105894000000000000000000000000000000000004
:1058A40000000000000000004300000000000000B1
:1058B40000000000000000000000000000000000E4
:1058C4000000000000000000A94500081145000880
:1058D40000000000AE550008AC550008B45600089E
:1058E400B4560008B4560008B4560008B45600086C
:1058F400B4560008B4560008B4560008B45600085C
:10590400FFFFFFFFFFFFFFFFFFFFFFFFFFFF0000A1
:105914000100415343494900000000000000000019
:105924000000000000000000000000000000000073
:1059340000004153434949000000000000000000FA
:105944000000000000000000000000000000000053
:04595400000000004F
:04000005080041FDB1
:00000001FF
